:020000040000FA
:060000000A128A110C280F
:10000800FE00030EF1000A08F2000A168A155529A7
:100018000A128A110F28F801F901FA018312031351
:10002800ED018313D4308400F0300A128A150120C0
:100038000A128A1183010A128A154F28831603139C
:10004800CB00A930B3003308BC00D32F25305006AD
:1000580003192F2830283C285008B3004B08840087
:100068003308831380000130B3003308CB07D32F44
:10007800BD01BE0141283E1561280130A807FF30A7
:10008800280784000A168A110A200A128A11D00049
:10009800B300B4013408003A03195328D32F3308A6
:1000A800003A0319E52F643A03196128023A031943
:1000B8003F280F3A03196128D32F00303D05B300BC
:1000C80007303E05B4003308340403196C286D2842
:1000D800C92E0630BF000030C0003C0884008313DE
:1000E8000008CC00840A0008CD00840A0008CE006D
:1000F800840A0008CF000430B3003308BC074F0857
:1001080083120313A300831603134E0883120313E9
:10011800A200831603134D0883120313A10083164C
:1001280003134C0883120313A0000030A70000300B
:10013800A6000030A5000030A4000A168A15E325A1
:100148000A128A110318A928AA28C7288316031394
:100158004F08F6004E08F5004D08F4004C08F3006F
:100168000A168A1569200A128A117608831603135B
:10017800CF007508CE007408CD007308CC0003309A
:10018800BD040030BE0483160313C501C6014F0821
:1001980083120313A300831603134E088312031359
:1001A800A200831603134D0883120313A1008316BC
:1001B80003134C0883120313A0000030A70000307B
:1001C800A6000030A5000030A4000A168A15A8224F
:1001D8000A128A110318F128F2280E2A031083162E
:1001E80003134E0D4F0D823EC500FF30031800303B
:1001F800C600FF30C5070318C60AFF30C60703301C
:10020800F3000030F4004608F6004508F5000A1629
:100218008A152A210A128A11740883160313C60044
:100228007308C5000A3083120313A2000030A3002C
:1002380083160313460883120313A50083160313BA
:10024800450883120313A4000A168A1561240A12AA
:100258008A1183120313230883160313C60083121B
:100268000313220883160313C500C61F3C293D2922
:100278004329FF30C5070318C60AFF30C6074503E0
:10028800FF3A0A128A159D240A128A11831203134F
:10029800480883160313CA008312031347088316FA
:1002A8000313C90083120313460883160313C800F7
:1002B80083120313450883160313C7004F088312DC
:1002C8000313AE00831603134E0883120313AD0005
:1002D800831603134D0883120313AC00831603130C
:1002E8004C0883120313AB00831603134A088312C6
:1002F8000313B20083160313490883120313B100D2
:1003080083160313480883120313B00083160313DC
:10031800470883120313AF000A128A153C210A12F8
:100328008A11831203132E0883160313CA0083123B
:1003380003132D0883160313C900831203132C0813
:1003480083160313C800831203132B0883160313A1
:10035800C7004A0883120313A3008316031349082E
:1003680083120313A200831603134808831203138E
:10037800A10083160313470883120313A0003F301C
:10038800A7008030A6000030A5000030A4000A169F
:100398008A15E3250A128A110318D329D429DD29DD
:1003A800FF3083160313C5070318C60AFF30C607B4
:1003B8000E2A831603134A0883120313A300831615
:1003C8000313490883120313A20083160313480872
:1003D80083120313A1008316031347088312031320
:1003E800A0004130A7002030A6000030A500003052
:1003F800A4000A168A15E3250A128A11031C052A85
:10040800062A0E2A013083160313C5070318C60AE5
:100418000030C60706300A168A116B230A128A11A1
:10042800831203134808DC004708DB004608DA009B
:100438004508D900831603134F0883120313E000FD
:10044800831603134E0883120313DF008316031366
:100458004D0883120313DE00831603134C0883121E
:100468000313DD000A168A1178250A128A118312ED
:1004780003135C0883160313CF00831203135B086E
:1004880083160313CE00831203135A08831603132B
:10049800CD0083120313590883160313CC004608B2
:1004A800803AFF0080307F02031D5C2A0A30450233
:1004B80003185F2A602ABF2A831603134F08831282
:1004C8000313A300831603134E0883120313A20019
:1004D800831603134D0883120313A1008316031315
:1004E8004C0883120313A0000030A7000030A600B8
:1004F8000030A5000030A4000A168A15A8220A12A6
:100508008A110318882A892A6B2B831603134F082C
:1005180083120313DB00831603134E08831203139D
:10052800DA00831603134D0883120313D9008316C8
:1005380003134C0883120313D8000A168A15CA2419
:100548000A128A11831203135B085A0459045804C7
:10055800031DAF2AB02A6B2B831603134608803A73
:10056800FF0080307F02031DBB2A02304502031CB6
:10057800BE2ABF2A6B2B831603134A088312031360
:10058800A30083160313490883120313A2008316DA
:100598000313480883120313A100831603134708A3
:1005A80083120313A0004030A7008930A6007030E2
:1005B800A5005F30A4000A168A15E3250A128A11DD
:1005C8000318E72AE82AF12AF73083160313C50728
:1005D8000318C60AFF30C607F92AF8308316031332
:1005E800C5070318C60AFF30C60745080A128A1548
:1005F8009D240A128A1183120313480883160313D1
:10060800CA0083120313470883160313C900831211
:100618000313460883160313C800831203134508FF
:1006280083160313C7004F0883120313A30083160E
:1006380003134E0883120313A200831603134D08F5
:1006480083120313A100831603134C0883120313A8
:10065800A000831603134A0883120313A700831606
:100668000313490883120313A600831603134808CB
:1006780083120313A5008316031347088312031379
:10068800A4000A168A11E7200A128A11831203139A
:10069800230883160313C400831203132208831646
:1006A8000313C30083120313210883160313C20024
:1006B80083120313200883160313C1000030CF00F0
:1006C8000030CE000030CD000030CC00D12B831696
:1006D80003134F0883120313DB00831603134E081A
:1006E80083120313DA00831603134D0883120313CE
:1006F800D900831603134C0883120313D8000A1673
:100708008A15CA240A128A11831203135B088316F6
:100718000313C400831203135A0883160313C30078
:1007280083120313590883160313C2008312031399
:10073800580883160313C1004408F6004308F5005F
:100748004208F4004108F30000300A168A1587268B
:100758000A128A11760883160313A3007508A200EB
:100768007408A1007308A0004F08A7004E08A6004F
:100778004D08A5004C08A4000A168A15F8220A128A
:100788008A11831603132308CF002208CE002108FC
:10079800CD002008CC00C501C601D001D00A500800
:1007A800B30001300310B30DFF3E031DD62B031019
:1007B800330D693E84000A168A110A200A128A112A
:1007C800B4000A168A110A200A128A11B5000A16FC
:1007D8008A110A200A128A11B6000A168A110A20FA
:1007E8000A128A11B70037084402031D052C36087F
:1007F8004302031D052C35084202031D052C34084D
:1008080041020318082C092C0A2C142C0130B300BF
:100818003308D0070A305006031D132C142CD32B91
:1008280003303D05B30000303E05B40033083404FE
:1008380003191F2C202CD22C2D30B3004B08840018
:100848003308831380000130B3003308CB07D22C60
:100858005008B30001300310B30DFF3E031D2F2CC9
:100868000310330D693E84000A168A110A200A1201
:100878008A1183120313A0000A168A110A200A1289
:100888008A11A1000A168A110A200A128A11A200E6
:100898000A168A110A200A128A11A3008316031362
:1008A800440883120313A700831603134308831213
:1008B8000313A60083160313420883120313A5002B
:1008C80083160313410883120313A4000A168A151A
:1008D800F9230A128A1183120313230883160313B8
:1008E800CA0083120313220883160313C900831254
:1008F8000313210883160313C80083120313200867
:1009080083160313C700003083120313B0000030AE
:10091800AF000030AE000A30AD00831603134A085A
:1009280083120313B40083160313490883120313B5
:10093800B30083160313480883120313B200831607
:100948000313470883120313B1000A168A154823B4
:100958000A128A1183120313300883160313CA007C
:10096800831203132F0883160313C900831203137A
:100978002E0883160313C800831203132D08831649
:100988000313C7004708303EB3004B088400330800
:10099800831380000130B3003308CB070130D00245
:1009A800500A031DD82CD92C2C2CED2C3030831652
:1009B8000313B3004B08840033088313800001300D
:1009C800B3003308CB07FF30C5070318C60AFF304A
:1009D800C6074608803AFF0080307F02031DF62CC8
:1009E800013045020318F92CFA2CDA2C831603136C
:1009F8004008803AFF0080307F02031D052D093032
:100A08003F02031C082D092D102D083083160313EF
:100A1800B3003308D000162D831603133F08B30024
:100A28003308D0005008B300B4013308BF023408BB
:100A3800031CC003C00250080319232D242D2F2D99
:100A48002E30B3004B088400330883138000013034
:100A5800B3003308CB0750080A128A159D240A12DE
:100A68008A1183120313480883160313BB008312E9
:100A78000313470883160313BA00831203134608A7
:100A880083160313B900831203134508831603134F
:100A9800B8003B0883120313B200831603133A0805
:100AA80083120313B1008316031339088312031347
:100AB800B00083160313380883120313AF0083169C
:100AC80003134F0883120313AE00831603134E0853
:100AD80083120313AD00831603134D088312031307
:100AE800AC00831603134C0883120313AB000A12DD
:100AF8008A153C210A128A11831203132E08DB007F
:100B08002D08DA002C08D9002B08D8000A168A15F7
:100B1800CA240A128A11831203135B08831603136B
:100B2800C400831203135A0883160313C3008312E5
:100B38000313590883160313C200831203135808BA
:100B480083160313C100A92E5008B3000130031007
:100B5800B30DFF3E031DAB2D0310330D693E84001A
:100B68000A168A110A200A128A1183120313A00096
:100B78000A168A110A200A128A11A1000A168A1175
:100B88000A200A128A11A2000A168A110A200A12D9
:100B98008A11A30083160313440883120313A700C2
:100BA80083160313430883120313A6008316031343
:100BB800420883120313A500831603134108831206
:100BC8000313A4000A168A15F9230A128A1183123C
:100BD8000313230883160313CA008312031322087E
:100BE80083160313C9008312031321088316031302
:100BF800C80083120313200883160313C7000030AC
:100C080083120313B0000030AF000030AE000A308A
:100C1800AD00831603134A0883120313B400831626
:100C28000313490883120313B300831603134808F8
:100C380083120313B20083160313470883120313A6
:100C4800B1000A168A1548230A128A11831203135F
:100C5800300883160313CA00831203132F08831660
:100C68000313C900831203132E0883160313C80045
:100C7800831203132D0883160313C7004708303E59
:100C8800B3004B0884003308831380000130B3009D
:100C98003308CB075008B30001300310B30DFF3EF3
:100CA800031D512E0310330D693E84000A168A1164
:100CB8000A200A128A1183120313AD000A168A1138
:100CC8000A200A128A11AE000A168A110A200A128C
:100CD8008A11AF000A168A110A200A128A11B00076
:100CE80083160313440883120313B40083160313F3
:100CF800430883120313B3008316031342088312B5
:100D08000313B20083160313410883120313B100BF
:100D18000A168A1548230A128A1183120313300807
:100D280083160313C400831203132F0883160313B7
:100D3800C300831203132E0883160313C200831201
:100D480003132D0883160313C1000130D002500A83
:100D5800031DAF2EB02EA82DC22E3030B3004B0885
:100D680084003308831380000130B3003308CB07B5
:100D7800FF30BF070318C00AFF30C0073F08400410
:100D8800031DC72EC82EB12ED32F3C088400831311
:100D98000008B300840A0008B4003308C10034080E
:100DA800C2000030C21BFF30C300C4000230B300D1
:100DB8003308BC07C41FE12EE22EF12E0330BD0418
:100DC8000030BE04C109C209C309C409C10A031914
:100DD800C20A0319C30A0319C40AD001D00A500869
:100DE800B30001300310B30DFF3E031DF62E0310B0
:100DF800330D693E84000A168A110A200A128A11E4
:100E0800B4000A168A110A200A128A11B5000A16B5
:100E18008A110A200A128A11B6000A168A110A20B3
:100E28000A128A11B70037084402031D252F360815
:100E38004302031D252F35084202031D252F3408C0
:100E480041020318282F292F2A2F342F0130B300ED
:100E58003308D0070A305006031D332F342FF32EE2
:100E680003303D05B30000303E05B40033083404B8
:100E780003193F2F402F4B2F2D30B3004B08840010
:100E88003308831380000130B3003308CB075008C0
:100E9800B300B4013308BF003408C000C52F0030C8
:100EA80083120313B0000030AF000030AE000A30E8
:100EB800AD00831603133F08B30001300310B30DD0
:100EC800FF3E031D622F0310330D693E84000A168E
:100ED8008A110A200A128A1183120313A0000A1623
:100EE8008A110A200A128A11A1000A168A110A20F8
:100EF8000A128A11A2000A168A110A200A128A11F5
:100F0800A30083160313440883120313A700831650
:100F18000313430883120313A6008316031342081E
:100F280083120313A50083160313410883120313C6
:100F3800A4000A168A15F9230A128A1183120313C8
:100F48002308B4002208B3002108B2002008B10029
:100F58000A168A1548230A128A11831203132D08C8
:100F6800303E83160313B4003408D0005008B30091
:100F78004B0884003308831380000130B300330822
:100F8800CB07FF30BF070318C00AFF30C0073F0A6E
:100F9800031DD22F400A031DD22FD32F532F013008
:100FA800A807FF30280784000A168A110A200A12A7
:100FB8008A11B3003308D0005008031DE42FE52F31
:100FC8002A284B088400831380010800831603171E
:100FD8008801890183120313880189018316031389
:100FE800880189010B178C16831203138C128B1737
:020FF8000800EF
:1010020064008001840A04060319003404060228DD
:1010120083120313A301A401322823087607A10037
:101022007708A0000318A00AA31F1828A0038312A0
:1010320003132008A2002208FF00210884000A16D8
:101042008A1100200A128A150A168A1574200A12B9
:101052008A15013083120313A3070318A40A003070
:10106200A40723087607A1007708A0000318A00AA6
:10107200A31F3C28A003831203132008A200220806
:10108200FF00210884000A168A1100200A128A151C
:10109200003A031D4D284E280E2808000A128A1114
:1010A200EA270A128A15003083120313B1000030B6
:1010B200B0002530AF008030AE000A168A11A5219B
:1010C2000A128A150A168A1582210A128A150A1626
:1010D2008A11DA200A128A1500300A168A11812230
:1010E2000A128A1583160313D1005108FA0001303F
:1010F2000A168A1181220A128A1583160313D10055
:101102005108F9007A080A168A15B0210A128A15BE
:1011120083120313480883160313DB00831203139D
:10112200470883160313DA00831203134608831653
:101132000313D90083120313450883160313D8003F
:1011420079080A168A15B0210A128A158312031326
:10115200480883160313D700831203134708831624
:101162000313D60083120313460883160313D50014
:1011720083120313450883160313D4009130F4003D
:101182008030F5000A168A15FF200A128A15B5303A
:1011920083160313D1005108A8005B08AC005A085B
:1011A200AB005908AA005808A9005708B000560811
:1011B200AF005508AE005408AD00831203136D084A
:1011C20083160313D200D3015208B1005308B200B0
:1011D200DC300A128A1122200A128A15DC30F4004D
:1011E2000030F5000A168A15FF200A128A150D3002
:1011F2000A168A11CE200A128A150A300A168A1194
:10120200CE200A128A150A168A11DA200A128A15C3
:10121200F701F70A01300A168A15B0200A128A1558
:10122200A630F6008030F7000A128A1509200A1249
:101232008A15F70102300A168A15B0200A128A1599
:10124200DC30F6000030F7000A128A1509200A1273
:101252008A15033083160313D3008A30D200553027
:10126200D100D10B3229D20B3229D30B32296D286E
:101272000A128A110C28831203132E088039B30034
:101282003308B8002E08B3003307B4003408BE0098
:10129200AD1F4C294D294E293E143E0803195229EF
:1012A200532962293E0A031D572958296029003013
:1012B200AE000030AD000030AC000030AB00AD1726
:1012C2006A290030AE000030AD000030AC000030C2
:1012D200AB0032088039B3003308B8063208B300D5
:1012E2003307B4003408BD00B11F782979297A295F
:1012F2003D143D0803197E297F298E293D0A031DCD
:10130200832984298C290030B2000030B1000030DA
:10131200B0000030AF00B11796290030B2000030A3
:10132200B1000030B0000030AF003D0803199A2927
:101332009B29A0293E08031D9F29A029A929003025
:10134200AE000030AD000030AC000030AB009C2C91
:101352002B08B3003308F30031080A168A15D62089
:101362000A128A15740883120313C4007308C30097
:101372004308B300B401B501B6013608BC00350814
:10138200BB003408BA003308B9004408B300B40102
:10139200B501B6013608C2003508C1003408C000E4
:1013A2003308BF002C08B3003308F30030080A16D4
:1013B2008A15D6200A128A15740883120313C400F0
:1013C2007308C3004308B300B401B501B601330882
:1013D200B907340803110318013E0319F129BA07AA
:1013E200350803110318013E0319F829BB07360813
:1013F20003110318013E0319FF29BC074408B30077
:10140200B401B501B6013308BF073408031103184C
:10141200013E03190D2AC007350803110318013EC6
:101422000319142AC107360803110318013E0319D0
:101432001B2AC2072D08B3003308F3002F080A162F
:101442008A15D6200A128A15740883120313C4005F
:101452007308C3004308B300B401B501B6013308F1
:10146200B907340803110318013E0319392ABA07D0
:10147200350803110318013E0319402ABB07360839
:1014820003110318013E0319472ABC074408B3009D
:10149200B401B501B6013308BF07340803110318BC
:1014A200013E0319552AC007350803110318013EEE
:1014B20003195C2AC107360803110318013E0319F8
:1014C200632AC2070830B3000310B90DBA0DBB0D71
:1014D200BC0DB30B652A2C08B3003308F3002F08A8
:1014E2000A168A15D6200A128A1574088312031363
:1014F200C4007308C3004308B3004408B400B50134
:10150200B6013308B907340803110318013E031961
:101512008B2ABA07350803110318013E0319922AD0
:10152200BB07360803110318013E0319992ABC07A9
:101532002B08B3003308F30030080A168A15D620A8
:101542000A128A15740883120313C4007308C300B5
:101552004308B3004408B400B501B6013308B90723
:10156200340803110318013E0319B82ABA073508D3
:1015720003110318013E0319BF2ABB0736080311E2
:101582000318013E0319C62ABC070830B300031032
:10159200B90DBA0DBB0DBC0DB30BC82A2B08B30095
:1015A2003308F3002F080A168A15D6200A128A1564
:1015B200740883120313C4007308C3004308B30002
:1015C2004408B400B501B6013308B9073408031161
:1015D2000318013E0319EE2ABA073508031103184E
:1015E200013E0319F52ABB07360803110318013E11
:1015F2000319FC2ABC072C08B3003308F300310896
:101602000A168A15D6200A128A1574088312031341
:10161200C4007308C3004308B3004408B400B50112
:10162200B6013308BF07340803110318013E03193A
:101632001B2BC007350803110318013E0319222B87
:10164200C107360803110318013E0319292BC207EB
:101652002D08B3003308F30030080A168A15D62085
:101662000A128A15740883120313C4007308C30094
:101672004308B3004408B400B501B6013308BF07FC
:10168200340803110318013E0319482BC00735081B
:1016920003110318013E03194F2BC107360803112A
:1016A2000318013E0319562BC2072D08B300330855
:1016B200F30031080A168A15D6200A128A15740810
:1016C20083120313C4007308C3004308B300440821
:1016D200B400B501B60108300310B30DB40DB50D59
:1016E200B60DFF3E031D6D2B3308BF0734080311EF
:1016F2000318013E03197E2BC00735080311031896
:10170200013E0319852BC107360803110318013E58
:1017120003198C2BC2073908B3003A08B4003B08FE
:10172200B5003C08B60018300310B60CB50CB40C6A
:10173200B30CFF3E031D952B3308BF07340803117A
:101742000318013E0319A62BC0073508031103181D
:10175200013E0319AD2BC107360803110318013EE0
:101762000319B42BC2070830B3000310B90DBA0D28
:10177200BB0DBC0DB30BB62B3E083D07B300B40145
:10178200B40D3308823EC30034080318013EFF3E05
:10179200C400E82B0130B3000310BF0DC00DC10D12
:1017A200C20DB30BCD2BBC1FD72BD82BD92B3F147B
:1017B2000130B3000310B90DBA0DBB0DBC0DB30B54
:1017C200DB2BFF30C3070318C40AFF30C407C11F55
:1017D200EB2BEC2BCB2BBD01BC1FF02BF12B0D2CDB
:1017E200FF303905B300FF303A05B400FF303B0546
:1017F200B5007F303C05B6003608350434043304A6
:101802000319042C052C082CBD01BD0A0D2C3F1C0C
:101812000B2C0C2C0D2C052C3D080319112C122C11
:10182200432C0130BF07003003180130C0070030DD
:1018320003180130C107003003180130C207421CEF
:10184200232C242C432C3F08B3004008B400410849
:10185200B5004208B6000130B700360DB60CB50C23
:10186200B40CB30CB70B2E2C3608C2003508C100DD
:101872003408C0003308BF000130C3070318C40A8C
:101882000030C4074408803AFF0080307F02031D05
:101892004C2CFF304302031C4F2C502C5B2C7F300E
:1018A20083120313C2008030C1000030C000003038
:1018B200BF00902C831203134408803AFF0080304B
:1018C2007F02031D662C013043020318692C6A2C27
:1018D200762C003083120313C2000030C1000030A6
:1018E200C0000030BF00B801902C831203134308DC
:1018F200B3003308BE00FF30BF05FF30C0057F30A4
:10190200C1050030C2053E1C872C882C892CC117CA
:101912003E08B3000310330CB4003408C200380888
:10192200B3003308C2044208AE004108AD004008CB
:10193200AC003F08AB00080083120313D700D71F87
:10194200A32CA42C532ED709D70A5708803A123E4B
:10195200031CAC2CAD2C972D0A30A2000030A30042
:101962005708F500F601F51BF6036430F30000306A
:10197200F4000A168A159E230A128A157408831225
:101982000313A5007308A4000A168A1561240A121B
:101992008A15831203132208C90001300310C90DEE
:1019A200FF3E031DCF2C0310490D593E84000A1639
:1019B2008A110A200A128A15CA000A168A110A20F6
:1019C2000A128A15CB000A168A110A200A128A15EF
:1019D200CC000A168A110A200A128A15CD004D0877
:1019E200AE004C08AD004B08AC004A08AB006430B6
:1019F200A2000030A3005708A400A501A41BA50360
:101A02000A168A1561240A128A1583120313220800
:101A1200CE0001300310CE0DFF3E031D0B2D03102F
:101A22004E0D7D3E84000A168A110A200A128A157A
:101A3200CF000A168A110A200A128A15D0000A1645
:101A42008A110A200A128A15D1000A168A110A205E
:101A52000A128A15D2005208B2005108B100500889
:101A6200B0004F08AF000A128A153C210A128A15EB
:101A7200831203132E08D6002D08D5002C08D4009B
:101A82002B08D3000A30F3000030F4005708F500A9
:101A9200F601F51BF6030A168A159E230A128A1509
:101AA200730883120313C90001300310C90DFF3EEE
:101AB200031D562D0310490D353E84000A168A1166
:101AC2000A200A128A15CA000A168A110A200A1264
:101AD2008A15CB000A168A110A200A128A15CC002E
:101AE2000A168A110A200A128A15CD004D08AE0084
:101AF2004C08AD004B08AC004A08AB005608B200D7
:101B02005508B1005408B0005308AF000A128A15F4
:101B12003C210A128A15831203132E08C8002D08CD
:101B2200C7002C08C6002B08C500FF2F5708803AB3
:101B3200753E031C9D2D9E2D262E0A30F30000308B
:101B4200F4005708F500F601F51BF6030A168A158C
:101B52009E230A128A15730883120313C9000130E7
:101B62000310C90DFF3E031DB12D0310490D353E73
:101B720084000A168A110A200A128A15CA000A1655
:101B82008A110A200A128A15CB000A168A110A2023
:101B92000A128A15CC000A168A110A200A128A151C
:101BA200CD004D08AE004C08AD004B08AC004A0811
:101BB200AB000A30A2000030A3005708A400A50120
:101BC200A41BA5030A168A1561240A128A15831218
:101BD20003132208CE0001300310CE0DFF3E031D79
:101BE200ED2D03104E0D593E84000A168A110A206B
:101BF2000A128A15CF000A168A110A200A128A15B9
:101C0200D0000A168A110A200A128A15D1000A1671
:101C12008A110A200A128A15D2005208B20051080B
:101C2200B1005008B0004F08AF000A128A153C21DB
:101C32000A128A15831203132E08C8002D08C70042
:101C42002C08C6002B08C500FF2F5708C900013019
:101C52000310C90DFF3E031D292E0310490D353E09
:101C620084000A168A110A200A128A15CA000A1664
:101C72008A110A200A128A15CB000A168A110A2032
:101C82000A128A15CC000A168A110A200A128A152B
:101C9200CD004D08C8004C08C7004B08C6004A08D2
:101CA200C500FF2F5708803A123E031C592E5A2EA8
:101CB200442F0A30A2000030A3005708F500F601B5
:101CC200F51BF6036430F3000030F4000A168A159F
:101CD2009E230A128A15740883120313A50073083F
:101CE200A4000A168A1561240A128A1583120313A4
:101CF2002208C90001300310C90DFF3E031D7C2ECE
:101D02000310490D253E84000A168A110A200A1280
:101D12008A15CA000A168A110A200A128A15CB00ED
:101D22000A168A110A200A128A15CC000A168A118A
:101D32000A200A128A15CD004D08AE004C08AD00EB
:101D42004B08AC004A08AB006430A2000030A3008C
:101D52005708A400A501A41BA5030A168A1561242D
:101D62000A128A15831203132208CE0001300310CF
:101D7200CE0DFF3E031DB82E03104E0D493E8400CA
:101D82000A168A110A200A128A15CF000A168A1127
:101D92000A200A128A15D0000A168A110A200A128B
:101DA2008A15D1000A168A110A200A128A15D2004F
:101DB2005208B2005108B1005008B0004F08AF00FD
:101DC2000A128A153C210A128A15831203132E085D
:101DD200D6002D08D5002C08D4002B08D3000A30D9
:101DE200F3000030F4005708F500F601F51BF60386
:101DF2000A168A159E230A128A1573088312031380
:101E0200C90001300310C90DFF3E031D032F03104B
:101E1200490D013E84000A168A110A200A128A1507
:101E2200CA000A168A110A200A128A15CB000A165B
:101E32008A110A200A128A15CC000A168A110A206F
:101E42000A128A15CD004D08AE004C08AD004B08B1
:101E5200AC004A08AB005608B2005508B10054085D
:101E6200B0005308AF000A128A153C210A128A15E3
:101E7200831203132E08C8002D08C7002C08C600C1
:101E82002B08C500FF2F5708803A753E031C4A2FC6
:101E92004B2FD32F0A30F3000030F4005708F5001F
:101EA200F601F51BF6030A168A159E230A128A15F5
:101EB200730883120313C90001300310C90DFF3EDA
:101EC200031D5E2F0310490D013E84000A168A117C
:101ED2000A200A128A15CA000A168A110A200A1250
:101EE2008A15CB000A168A110A200A128A15CC001A
:101EF2000A168A110A200A128A15CD004D08AE0070
:101F02004C08AD004B08AC004A08AB000A30A200F6
:101F12000030A3005708A400A501A41BA5030A16BC
:101F22008A1561240A128A15831203132208CE002D
:101F320001300310CE0DFF3E031D9A2F03104E0DEC
:101F4200253E84000A168A110A200A128A15CF0039
:101F52000A168A110A200A128A15D0000A168A1154
:101F62000A200A128A15D1000A168A110A200A12B8
:101F72008A15D2005208B2005108B1005008B000D0
:101F82004F08AF000A128A153C210A128A158312E1
:101F920003132E08C8002D08C7002C08C6002B0802
:101FA200C500FF2F5708C90001300310C90DFF3EBD
:101FB200031DD62F0310490D013E84000A168A1113
:101FC2000A200A128A15CA000A168A110A200A125F
:101FD2008A15CB000A168A110A200A128A15CC0029
:101FE2000A168A110A200A128A15CD004D08C80065
:101FF2004C08C7004B08C6004A08C5000800FF1B72
:102002000A2883137F1883170008840A0319FF0A1A
:10201200080010308A000408840A82070034003461
:10202200003480343F3400340034203441340034EE
:102032000034C8344234003400347A344434003436
:1020420040341C34463400345034C33447340034F2
:102052002434743449348034963418344B34203464
:10206200BC34BE344C3428346B346E344E34F934C0
:10207200023415345034EC347834AD346034CA341C
:10208200F234493471340034003480343F34CD3476
:10209200CC34CC343D340A34D73423343C346F341A
:1020A200123483343A341734B734D1343834AC343C
:1020B200C53427343734BD34373486343534953417
:1020C200BF34D63433347734CC342B3432345F34A7
:1020D200703489343034FF34E634DB342E3408343F
:1020E200E5343C341E3460344234A2340D340134BD
:1020F2000034003400340A340034003400346434D0
:10210200003400340034E834033400340034103432
:10211200273400340034A03486340134003440348F
:1021220042340F340034803496349834003400340E
:10213200E134F53405340034CA349A343B3456342D
:102142003134203420342034563432342034203494
:10215200203463346F346E347434613464346F34D5
:10216200723420340A34003456343134203420346A
:1021720020345634323420342034203443344F3423
:102182004E345434003425346634203425346634D5
:1021920020342034253464340034F30083160313CE
:1021A200981CD428D528CF287308831203139900CA
:1021B200080000300A168A1590200A168A1101308A
:1021C2000A168A1590200A168A1108000310831233
:1021D2000313220D230DF3007308AD002D08031D18
:1021E200F328F428FD280030A3000030A2000030BC
:1021F200A1000030A000A4290310260D270DF30032
:102202007308AC002C08031D072908290929F428A2
:10221200A217FF30A005FF30A105FF30A205003054
:10222200A305A617FF30A405FF30A505FF30A605BC
:102232000030A7050030AB000030AA000030A90032
:102242000030A8007F30AD02A0302C07F3007308E5
:10225200AD022030F3007308AC000130F30003102C
:10226200A80DA90DAA0DAB0DF30B302927082302E7
:10227200031D452926082202031D4529250821029E
:10228200031D452924082002031C482949295829ED
:102292002408A0022508031C250FA1022608031CFE
:1022A200260FA2022708031C270FA30228140130BD
:1022B200F3000310A00DA10DA20DA30DF30B5A29DB
:1022C2000130AC02031D662967292E29AD1F6A2938
:1022D2006B2985292D08803A9F3E0318712972299E
:1022E2007329F42801300310AB0CAA0CA90CA80C1A
:1022F200FF3E031D74290130F3007308AD07031D6F
:102302008329842973299C2920302D02031C8A29C0
:102312008B299729F4280130F3000310A80DA90D89
:10232200AA0DAB0DF30B8E290130AD022D08031D52
:102332009B299C298C292B08A3002A08A200290882
:10234200A1002808A0000800831203132E08B2007F
:102352002F08B3003008B4003108B500063003106E
:10236200B20DB30DB40DB50DFF3E031DB0293508F6
:10237200A3003408A2003308A1003208A0002E08EE
:10238200B6002F08B7003008B8003108B90006308F
:102392000310B60DB70DB80DB90DFF3E031DC929C7
:1023A2000030BA000930BB003D30BC000030BD0037
:1023B2003608BA023708031C370FE029E129BB02AD
:1023C2003808031C380FE629E729BC023908031C28
:1023D200390FEC29ED29BD023D08A7003C08A600F3
:1023E2003B08A5003A08A4000A168A1546250A16D3
:1023F2008A11831203132108F5002008F40001302A
:102402007502003003197402031C082A092A652A7E
:102412002E08B2002F08B3003008B4003108B5000E
:1024220004300310B20DB30DB40DB50DFF3E031D04
:10243200122A3508A3003408A2003308A10032088A
:10244200A0002E08B6002F08B7003008B8003108E7
:10245200B90004300310B60DB70DB80DB90DFF3E2B
:10246200031D2B2A0030BA000930BB003D30BC00EE
:102472000030BD003608BA023708031C370F422A63
:10248200432ABB023808031C380F482A492ABC02D7
:102492003908031C390F4E2A4F2ABD023D08A700F6
:1024A2003C08A6003B08A5003A08A4000A168A15B3
:1024B20046250A168A11831203132108F500200803
:1024C200F400831603131815013075020030031946
:1024D200740203186D2A6E2A802A74088316031365
:1024E2009900181283120313981783160313871780
:1024F2000713831203131816831603139816080082
:10250200F500831203131F083F3940389F008316DA
:1025120003139F01262B0514831603170814C330D7
:10252200831203139F055A2B8514831603178814ED
:10253200831203131F08C33904389F005A2B051551
:10254200831603170815831203131F08C3390838AB
:102552009F005A2B851583160317881583120313C0
:102562001F08C3390C389F005A2B85168316031790
:102572000816831203131F08C33910389F005A2B01
:102582000914831603178816831203131F08C3390D
:1025920014389F005A2B89148316031708178312C5
:1025A20003131F08C33918389F005A2B09158316C5
:1025B20003178817831203131F08C3391C389F009F
:1025C2005A2B0615831603170914831203131F08C7
:1025D200C33920389F005A2B861583160317891496
:1025E200831203131F08C33924389F005A2B861401
:1025F200831603170915831203131F08C3392838DA
:102602009F005A2B0616831603178915831203138C
:102612001F08C3392C389F005A2B06148316031740
:102622000916831203131F08C33930389F005A2B2F
:102632008616831603178916831203131F08C339DC
:1026420034389F005A2B00306A2B7508F300F401CE
:102652007408003A03192E2B242B7308003A03192D
:102662008C2A013A0319952A033A0319A02A013A3E
:102672000319AB2A073A0319B62A013A0319C12AE8
:10268200033A0319CC2A013A0319D72A0F3A03193C
:10269200E22A013A0319ED2A033A0319F82A013A08
:1026A2000319032B073A03190E2B013A0319192BAD
:1026B200242B1F140630F300F30B5D2B0000831252
:1026C20003139F149F1C662B672B682B632B1F1011
:1026D2001E08080083120313D8006E305802031C30
:1026E200732B742B832C3F30AE000030AD000030D2
:1026F200AC000030AB006430A1000030A2005808EA
:10270200C900CA014908A3004A08A4000A168A158A
:1027120062220A168A11831203132108CB000130A8
:102722000310CB0DFF3E031D912B03104B0D7D3E7D
:1027320084000A168A110A200A168A11CC000A1687
:102742008A110A200A168A11CD000A168A110A2055
:102752000A168A11CE000A168A110A200A168A114E
:10276200CF004F08B2004E08B1004D08B0004C082F
:10277200AF000A128A153C210A168A11831203132A
:102782002E08D7002D08D6002C08D5002B08D4001F
:102792000A30A1000030A2005808C900CA01490845
:1027A200F5004A08F6006430F3000030F4000A161F
:1027B2008A15E8210A168A11740883120313A400E9
:1027C2007308A3000A168A1562220A168A11831256
:1027D20003132108CB0001300310CB0DFF3E031D74
:1027E200ED2B03104B0D593E84000A168A110A2064
:1027F2000A168A11CC000A168A110A200A168A11B0
:10280200CD000A168A110A200A168A11CE000A166B
:102812008A110A200A168A11CF004F08AE004E080C
:10282200AD004D08AC004C08AB005708B20056088A
:10283200B1005508B0005408AF000A128A153C21B5
:102842000A168A11831203132E08D3002D08D20010
:102852002C08D1002B08D0000A30F3000030F4001D
:102862005808C900CA014908F5004A08F6000A16C4
:102872008A15E8210A168A11730883120313CB0002
:1028820001300310CB0DFF3E031D422C03104B0DF4
:10289200353E84000A168A110A200A168A11CC00D3
:1028A2000A168A110A200A168A11CD000A168A11FE
:1028B2000A200A168A11CE000A168A110A200A165E
:1028C2008A11CF004F08AE004E08AD004D08AC0093
:1028D2004C08AB005308B2005208B1005108B000D6
:1028E2005008AF000A128A153C210A168A11831277
:1028F20003132E08C8002D08C7002C08C6002B0899
:10290200C500772D0B305802031C882C892C342DDE
:102912003F30AE000030AD000030AC000030AB0004
:102922000A30A1000030A2005808C900CA014908B3
:10293200A3004A08A4000A168A1562220A168A11FE
:10294200831203132108CB0001300310CB0DFF3E8D
:10295200031DA62C03104B0D593E84000A168A1142
:102962000A200A168A11CC000A168A110A200A16AF
:102972008A11CD000A168A110A200A168A11CE007F
:102982000A168A110A200A168A11CF004F08B200CD
:102992004E08B1004D08B0004C08AF000A128A156B
:1029A2003C210A168A11831203132E08D7002D0820
:1029B200D6002C08D5002B08D4000A30F3000030D2
:1029C200F4005808C900CA014908F5004A08F6008F
:1029D2000A168A15E8210A168A117308831203134C
:1029E200CB0001300310CB0DFF3E031DF32C03106F
:1029F2004B0D353E84000A168A110A200A168A11E6
:102A0200CC000A168A110A200A168A11CD000A166B
:102A12008A110A200A168A11CE000A168A110A2081
:102A22000A168A11CF004F08AE004E08AD004D08BD
:102A3200AC004C08AB005708B2005608B10055086C
:102A4200B0005408AF000A128A153C210A168A11F6
:102A5200831203132E08C8002D08C7002C08C600D5
:102A62002B08C500772D3F30AE000030AD0000309E
:102A7200AC000030AB005808C90001300310C90D8A
:102A8200FF3E031D3F2D0310490D353E84000A16FB
:102A92008A110A200A168A11CA000A168A110A2005
:102AA2000A168A11CB000A168A110A200A168A11FE
:102AB200CC000A168A110A200A168A11CD004D0886
:102AC200B2004C08B1004B08B0004A08AF000A122D
:102AD2008A153C210A168A11831203132E08C80094
:102AE2002D08C7002C08C6002B08C5000800831259
:102AF20003135C088039E1006108E9005C08E10029
:102B02006107E2006208EB00DB1F882D892D8A2D08
:102B12006B146B0803198E2D8F2D9F2D6B0A031DCD
:102B2200932D942D9C2D0030DC000030DB00003012
:102B3200DA000030D900DB17DC01A72D0030DC0001
:102B42000030DB000030DA000030D9006008803944
:102B5200E1006108EA006A0869060319B12DB22D85
:102B6200B32D69176008E1006107E2006208EA001C
:102B7200DF1FBC2DBD2DBE2D6A146A080319C22D9C
:102B8200C32DD32D6A0A031DC72DC82DD02D0030A9
:102B9200E0000030DF000030DE000030DD00DF1733
:102BA200E001DB2D0030E0000030DF000030DE000D
:102BB2000030DD006B086A020318E02DE12D252E9E
:102BC200691FE42DE52DE92D8030E1006108E90659
:102BD2006B08E1006108EC006A08E1006108EB00A3
:102BE2006C08E1006108EA005908E1006108EC00A4
:102BF2005D08E1006108D9006C08E1006108DD00B0
:102C02005A08E1006108EC005E08E1006108DA00A0
:102C12006C08E1006108DE005B08E1006108EC007D
:102C22005F08E1006108DB006C08E1006108DF0079
:102C32005C08E1006108EC006008E1006108DC006A
:102C42006C08E1006108E000EC016A08E100E201C1
:102C52006208E4006B086102E300031CE4036408F9
:102C6200803AFF0080307F02031D392E1A30630242
:102C7200031C3C2E3D2E7A2E831203135C085B0448
:102C82005A045904031D462E482E0130492E0030A5
:102C9200E1006108EC000030DC000030DB000030B5
:102CA200DA000030D9006A08E1006108EB00822EE8
:102CB2006C1C5C2E5D2E662E6C08E1000310610C0C
:102CC2000138E2006208EC00682E0310EC0C591C7B
:102CD2006B2E6C2E6D2EEC170130E1005C0DDC0CBE
:102CE200DB0CDA0CD90CE10B6F2E0130E10061082C
:102CF200EB07831203136A086B02031C812E822ED8
:102D0200592E691B852E862ED12E6B08031D8A2E05
:102D12008B2E942E0030DC000030DB000030DA0015
:102D22000030D900FF2F5D08D9075E080311031890
:102D3200013E03199D2EDA075F0803110318013EB5
:102D42000319A42EDB07600803110318013E0319BF
:102D5200AB2EDC075C1CAE2EAF2E852F6C1CB22E68
:102D6200B32EBC2E6C08E1000310610C0138E200A6
:102D72006208EC00BE2E0310EC0C591CC12EC22EB0
:102D8200C32EEC170130E1005C0DDC0CDB0CDA0C1D
:102D9200D90CE10BC52E0130E1006108EB07852F4C
:102DA2005C08803AFF006008803A7F02031DE32E30
:102DB2005F085B02031DE32E5E085A02031DE32E29
:102DC2005D0859020318E62EE72E3F2FFF30E1007F
:102DD200FF30E200FF30E300FF30E4005D08E50071
:102DE2005E08E6005F08E7006008E8005908E502AF
:102DF2005A08031C5A0FFE2EFF2EE6025B08031C24
:102E02005B0F042F052FE7025C08031C5C0F0A2FDF
:102E12000B2FE8026508E10766080318660F122FF8
:102E2200132FE20767080318670F182F192FE307FC
:102E320068080318680AE4076408DC006308DB001A
:102E42006208DA006108D9008030E1006108E90611
:102E5200EC09EC0A6C08031D2F2F302F4D2F013087
:102E6200D907003003180130DA07003003180130A7
:102E7200DB07003003180130DC074D2F5D08D90253
:102E82005E08031C5E0FDA025F08031C5F0FDB02A1
:102E92006008031C600FDC025C085B045A045904DE
:102EA200031D542F552F812F6C08031D592F5A2FA4
:102EB200812F0030DC000030DB000030DA0000300F
:102EC200D900FF2F0130E1000310D90DDA0DDB0D1F
:102ED200DC0DE10B652FEC1F6F2F702F712F591432
:102EE2006C1C742F752F782F0314EC0D7A2F03109E
:102EF200EC0D6B0803197E2F7F2F812F0130EB021F
:102F0200DB1F842F852F632FEA01EC1F892F8A2F65
:102F1200982F6C087F3903198F2F902F932FEA0176
:102F2200EA0A982F591C962F972F982F902F6A08EC
:102F320003199C2F9D2FD12F0130D9070030031880
:102F42000130DA07003003180130DB0700300318C4
:102F52000130DC075C1CAE2FAF2FD12F5908E100E6
:102F62005A08E2005B08E3005C08E4000130E50077
:102F7200640DE40CE30CE20CE10CE50BB92F6408E0
:102F8200DC006308DB006208DA006108D9006B0A22
:102F92000319CC2FCD2FD12F0130E1006108EB07AF
:102FA2006B0A0319D52FD62FDB2F6B08031DDA2FDF
:102FB200DB2FE92F0030DC000030DB000030DA00CC
:102FC2000030D9006B08031DE72FE82FE92FE90134
:102FD2006B1CEC2FED2FEF2FDB17F32F7F30E1006F
:102FE2006108DB056B08E1000310610CE200620876
:0E2FF200DC00E91FFD2FFE2FFF2FDC1708006B
:1030C200831203138C1E6628672861281A080800D9
:1030D2007608750474047304031970287128732820
:1030E2008030F6060800F5008312031309147508F0
:1030F2000A168A1524220A168A15831203138914C2
:1031020082288328000083120313891088288928C3
:1031120000001030F400F40B8C2800000800F600C8
:1031220083120313091076080A168A1524220A1636
:103132008A158312031389149E289F280000831284
:1031420003138910A428A52800000330F500973046
:10315200F400F40BAA28F50BAA28AF280800831262
:103162000313A1002103031DB728B828C428770838
:10317200803EA0002008A20022080A168A1590208C
:103182000A168A15D52802302106031DC928CA2825
:10319200D5287708C03EA0002008A20022080A16FF
:1031A2008A1590200A168A15080083120313A400B8
:1031B200A001A1017308F500F6017508A2007608C6
:1031C200A300241CE528E628EC282208A0070318FF
:1031D200A10A2308A10701300310A20DA30DFF3E8F
:1031E200031DED280310A40C2408031DF928FA2856
:1031F200E2282108F4002008F3000800F70116294C
:1032020077087407840075080318750AFF000A1608
:103212008A1100200A168A150A168A11CE200A1669
:103222008A150130F6007608F707770874078400DC
:1032320075080318750A83120313FF000A168A1110
:1032420000200A168A15003A031D28292929012976
:10325200080083120313A001A101731C3129322932
:103262003A29750883120313A0070318A10A7608E6
:10327200A10701300310F50DF60DFF3E031D3B299A
:1032820001300310F40CF30CFF3E031D42297308B6
:103292007404031D4D294E292E298312031321087C
:1032A200F4002008F3000800831203138C1E5A292D
:1032B2005B297B298C120A168A1561200A168A1547
:1032C200F0007008F8002B307806031D69296A297E
:1032D20071290130F000700883120313ED077B2976
:1032E2002D307806031D762977297B290130831238
:1032F2000313ED0272088A00710E8300FE0E7E0E29
:103302000900831203130910891000300A168A1566
:1033120024220A168A15413083120313A100ED30CC
:10332200A000A00B9229A10B9229972902300A161C
:103332008A1590200A168A1538300A168A159020A6
:103342000A168A150C300A168A1590200A168A1552
:1033520006300A168A1590200A168A15080083126A
:103362000313CD003C30AE00A030AD009030AC0075
:103372002E30AB004D08C900CA01CB01CC014C086C
:10338200F6004B08F5004A08F4004908F300013042
:103392000A168A1587260A168A15760883120313D7
:1033A200B2007508B1007408B0007308AF000A12C9
:1033B2008A153C210A168A15831203132E08C800A7
:1033C2002D08C7002C08C6002B08C500080073088A
:1033D20074040319ED29EE291F2A83120313A00195
:1033E200A00AFE2901300310F30DF40DFF3E031D68
:1033F200F4290130F7007708A007F41F012A022AF6
:10340200F32974087602031D082A73087502031C47
:103412000B2A0C2A122A7308F5027408031CF603FD
:10342200F60201300310F40CF30CFF3E031D132AC5
:103432000130A002031D1E2A1F2A022A7608F40068
:103442007508F3000800F300731C282A292A2D2A84
:10345200831203130814302A831203130810F31C77
:10346200332A342A362A8814372A8810731D3A2AB6
:103472003B2A3D2A08153E2A0811F31D412A422AF9
:10348200442A8815452A8811731E482A492A4B2A3C
:1034920008164C2A0812F31E4F2A502A522A88165E
:1034A200532A8812731F562A572A592A08175A2A4A
:1034B2000813F31F5D2A5E2A602A8817612A88137F
:1034C200080083120313A701A8012108220403198B
:1034D2006B2A6C2AA32AA601A60A7A2A01300310B3
:1034E200A10DA20DFF3E031D702A0130A500250883
:1034F200A607A21F7D2A7E2A6F2A01300310A70D7C
:10350200A80DFF3E031D7F2A22082402031D8B2AD9
:1035120021082302031C8E2A8F2A962A2108A3023D
:103522002208031CA403A402271401300310A20CD6
:10353200A10CFF3E031D972A0130A602031DA22AF9
:10354200A32A7E2A2808A2002708A100080000302A
:10355200831203132005F30000302105F4008030AC
:103562002205F5007F302305F60076087504740401
:103572007304031DBD2ABE2AC62A0030A3000030F0
:10358200A2000030A1000030A00000302405F300AA
:1035920000302505F40080302605F5007F30270530
:1035A200F6007608750474047304031DD92ADA2A16
:1035B200E22A0030A7000030A6000030A50000304B
:1035C200A40027082306031DF02A26082206031D4D
:1035D200F02A25082106031DF02A240820060319D3
:1035E200F32AF42AF62A0310F72A0314080080307B
:1035F20083160313A306270883120313DC00831622
:103602000313260883120313DB0083160313250812
:1036120083120313DA00831603132408831203139D
:10362200D90083160313230883120313E0008316C1
:103632000313220883120313DF00831603132108E6
:1036420083120313DE00831603132008831203136D
:10365200DD000A168A1178250A168A1583120313C9
:103662005C0883160313A300831203135B088316FB
:103672000313A200831203135A0883160313A10033
:1036820083120313590883160313A0000800831240
:10369200031330082F042E042D040319512B522B2F
:1036A200952BF501F50A622B0130F4000310AD0DE4
:1036B200AE0DAF0DB00DF40B572B0130F4007408B2
:1036C200F507B01F652B662B552B30083402031DFE
:1036D200742B2F083302031D742B2E083202031D94
:1036E200742B2D083102031C772B782B862B2D0887
:1036F200B1022E08031C2E0FB2022F08031C2F0F3B
:10370200B3023008031C300FB40201300310B00CB6
:10371200AF0CAE0CAD0CFF3E031D872B0130F50242
:10372200031D942B952B662B3408B0003308AF0091
:103732003208AE003108AD00080083120313A10164
:10374200F61FA42BA52BAC2BF509F609F50A0319D4
:10375200F60AA101A10AF41FAF2BB02BB52BF30976
:10376200F409F30A0319F40A730874040319BA2B4F
:10377200BB2BEA2BA001A00AC92B01300310F30DC9
:10378200F40DFF3E031DBF2B0130F7007708A007A1
:10379200F41FCC2BCD2BBE2B74087602031DD32B2A
:1037A20073087502031CD62BD72BDD2B7308F50289
:1037B2007408031CF603F60201300310F40CF30C38
:1037C200FF3E031DDE2B0130A002031DE92BEA2B75
:1037D200CD2B21080319EE2BEF2BF42BF509F6095B
:1037E200F50A0319F60A7608F4007508F3000800D2
:1037F200003083120313AB000030AA000030A9008E
:103802000030A800230822042104200403190A2CF2
:103812000B2C582CAC01AC0A1B2C0130F30003100A
:10382200A00DA10DA20DA30DF30B102C0130F3007E
:103832007308AC07A31F1E2C1F2C0E2C0130F300A3
:103842000310A80DA90DAA0DAB0DF30B212C230813
:103852002702031D362C22082602031D362C2108BE
:103862002502031D362C20082402031C392C3A2C75
:10387200492C2008A4022108031C210FA5022208BA
:10388200031C220FA6022308031C230FA7022814DD
:1038920001300310A30CA20CA10CA00CFF3E031DCF
:1038A2004A2C0130AC02031D572C582C1F2C2B081C
:1038B200A3002A08A2002908A1002808A0000800E5
:1038C20083120313A801A31F672C682C6F2CA20973
:1038D200A309A20A0319A30AA801A80AA51F722C08
:1038E200732C7C2CA409A509A40A0319A50A01308A
:1038F200A6002608A806A901AA0122082304031982
:10390200832C842CBB2CA701A70A922C0130031014
:10391200A20DA30DFF3E031D882C0130A600260830
:10392200A707A31F952C962C872C01300310A90DF5
:10393200AA0DFF3E031D972C23082502031DA32C6D
:1039420022082402031CA62CA72CAE2C2208A402B7
:103952002308031CA503A502291401300310A30C9C
:10396200A20CFF3E031DAF2C0130A702031DBA2C8F
:10397200BB2C962C28080319BF2CC02CC52CA909D6
:10398200AA09A90A0319AA0A2A08A3002908A20057
:1039920008000310831203135A0D5B0DDC005C0850
:1039A200E2006208031DD62CD72CE02C0030DB008D
:1039B2000030DA000030D9000030D800452D580818
:1039C200DC005908DD005A08DE005B08DF001F300A
:1039D2000310DF0CDE0CDD0CDC0CFF3E031DE92CBA
:1039E2005C08E0006008E100DA17FF30D805FF301C
:1039F200D905FF30DA050030DB059630E202E21F1E
:103A0200032D042D1E2D6208803A973E03180A2DBD
:103A12000B2D0C2DD72C01300310DB0CDA0CD90C3A
:103A2200D80CFF3E031D0D2D0130DC005C08E207BF
:103A3200031D1C2D1D2D0C2D352D20306202031C63
:103A4200232D242D302DD72C0130DC000310D80D6E
:103A5200D90DDA0DDB0DDC0B272D0130E2026208F5
:103A6200031D342D352D252D61080319392D3A2DCD
:103A7200452DD809D909DA09DB09D80A0319D90A67
:103A82000319DA0A0319DB0A080083120313A901D6
:103A9200A31F4C2D4D2D5A2DA009A109A209A3093E
:103AA200A00A0319A10A0319A20A0319A30AA90168
:103AB200A90AA71F5D2D5E2D6D2DA409A509A609D2
:103AC200A709A40A0319A50A0319A60A0319A70A32
:103AD2000130F3007308A9060030AD000030AC00DD
:103AE2000030AB000030AA00230822042104200485
:103AF20003197C2D7D2DCA2DA801A80A8D2D013018
:103B0200F3000310A00DA10DA20DA30DF30B822D46
:103B12000130F3007308A807A31F902D912D802D6B
:103B22000130F3000310AA0DAB0DAC0DAD0DF30B7C
:103B3200932D23082702031DA82D22082602031D08
:103B4200A82D21082502031DA82D20082402031CEC
:103B5200AB2DAC2DBB2D2008A4022108031C210F84
:103B6200A5022208031C220FA6022308031C230F0E
:103B7200A7022A1401300310A30CA20CA10CA00C62
:103B8200FF3E031DBC2D0130A802031DC92DCA2D05
:103B9200912D29080319CE2DCF2DDA2DAA09AB09B3
:103BA200AC09AD09AA0A0319AB0A0319AC0A031935
:103BB200AD0A2D08A3002C08A2002B08A1002A0898
:103BC200A00008000030831203132005F300003028
:103BD2002105F40080302205F5007F302305F60030
:103BE2007608750474047304031DF82DF92D012E53
:103BF2000030A3000030A2000030A1000030A0007D
:103C020000302405F30000302505F400803026053D
:103C1200F5007F302705F6007608750474047304F6
:103C2200031D142E152E1D2E0030A7000030A600F5
:103C32000030A5000030A400A31F202E212E452E07
:103C42000030F3000030F4000030F5008030F60060
:103C52002008F3022108031C210F302E312EF4021A
:103C62002208031C220F362E372EF5022308031CCE
:103C7200230F3C2E3D2EF6027608A3007508A20003
:103C82007408A1007308A000A71F482E492E6D2EAC
:103C92000030F3000030F4000030F5008030F60010
:103CA2002408F3022508031C250F582E592EF4026E
:103CB2002608031C260F5E2E5F2EF5022708031C22
:103CC200270F642E652EF6027608A7007508A60057
:103CD2007408A5007308A4008030A3068030A706EC
:103CE20027082302031D7F2E26082202031D7F2E92
:103CF20025082102031D7F2E240820020318822E8C
:103D0200832E852E0310862E0314080083120313BC
:103D1200A400240803198E2E8F2EA32EF61F922E96
:103D2200932EA32E7309A6007409A7007509A80093
:103D32007609A900A60A0319A70A0319A80A0319F2
:103D4200A90AAB2E7608A9007508A8007408A70076
:103D52007308A6007608750474047304031DB22E5A
:103D6200B32EBC2E0030F6000030F5000030F40017
:103D72000030F300422F9630A0002008A500CE2E7E
:103D82000130A0002008A50701300310A90CA80CDF
:103D9200A70CA60CFF3E031DC62EFE302905031DEF
:103DA200D32ED42EC12EF02E0130A0002008A5075C
:103DB2000130A607003003180130A70700300318AE
:103DC2000130A807003003180130A90701300310A1
:103DD200A90CA80CA70CA60CFF3E031DE82EFF3071
:103DE2002905031DF52EF62ED52E022F0130A50230
:103DF2000130A0000310A60DA70DA80DA90DA00B60
:103E0200FB2EA81B052F062F0C2F023025020318AC
:103E12000B2F0C2FF72E25180F2F102F182FFF30D6
:103E2200A605FF30A7057F30A805FF30A9050310BE
:103E3200A50C2508A000A101A201A30118300310BE
:103E4200A00DA10DA20DA30DFF3E031D202F2008E2
:103E5200A6042108A7042208A8042308A904240808
:103E62000319342F352F3A2FF61F382F392F3A2FB7
:103E7200A9172908F6002808F5002708F4002608E3
:103E8200F3000800831203132008F3002108F40052
:103E92002208F5000310740D750DF6007608AD00CA
:103EA2002D08031D552F562F5F2F0030A300003021
:103EB200A2000030A1000030A000FF2F2408F30070
:103EC2002508F4002608F5000310740D750DF600A0
:103ED2007608AC002C08031D6F2F702F712F562F00
:103EE200A117FF30A005FF30A1050030A205A517DC
:103EF200FF30A405FF30A5050030A6050030AB0059
:103F02000030AA000030A9000030A8007F30AD02C6
:103F120098302C07F3007308AD021830F3007308D1
:103F2200AC000130F3000310A80DA90DAA0DAB0DD2
:103F3200F30B942F26082202031DA52F2508210228
:103F4200031DA52F24082002031CA82FA92FB42F7C
:103F52002408A0022508031C250FA1022608031C21
:103F6200260AA202281401300310A00DA10DA20DF1
:103F7200FF3E031DB52F0130AC02031DC12FC22F1E
:103F8200922FAD1FC52FC62FE02F2D08803A973EE6
:103F92000318CC2FCD2FCE2F562F01300310AB0C90
:103FA200AA0CA90CA80CFF3E031DCF2F0130F30071
:103FB2007308AD07031DDE2FDF2FCE2FF72F18302A
:103FC2002D02031CE52FE62FF22F562F0130F300AE
:103FD2000310A80DA90DAA0DAB0DF30BE92F0130AB
:103FE200AD022D08031DF62FF72FE72F2B08A30094
:0E3FF2002A08A2002908A1002808A000080043
:04400E00D420FF3F7C
:00000001FF
